{
  "_format": "hh-sol-artifact-1",
  "contractName": "CertificateNFT",
  "sourceName": "contracts/CertificateNFT.sol",
  "abi": [
    {
      "inputs": [],
      "stateMutability": "nonpayable",
      "type": "constructor"
    },
    {
      "inputs": [
        {
          "internalType": "address",
          "name": "sender",
          "type": "address"
        },
        {
          "internalType": "uint256",
          "name": "tokenId",
          "type": "uint256"
        },
        {
          "internalType": "address",
          "name": "owner",
          "type": "address"
        }
      ],
      "name": "ERC721IncorrectOwner",
      "type": "error"
    },
    {
      "inputs": [
        {
          "internalType": "address",
          "name": "operator",
          "type": "address"
        },
        {
          "internalType": "uint256",
          "name": "tokenId",
          "type": "uint256"
        }
      ],
      "name": "ERC721InsufficientApproval",
      "type": "error"
    },
    {
      "inputs": [
        {
          "internalType": "address",
          "name": "approver",
          "type": "address"
        }
      ],
      "name": "ERC721InvalidApprover",
      "type": "error"
    },
    {
      "inputs": [
        {
          "internalType": "address",
          "name": "operator",
          "type": "address"
        }
      ],
      "name": "ERC721InvalidOperator",
      "type": "error"
    },
    {
      "inputs": [
        {
          "internalType": "address",
          "name": "owner",
          "type": "address"
        }
      ],
      "name": "ERC721InvalidOwner",
      "type": "error"
    },
    {
      "inputs": [
        {
          "internalType": "address",
          "name": "receiver",
          "type": "address"
        }
      ],
      "name": "ERC721InvalidReceiver",
      "type": "error"
    },
    {
      "inputs": [
        {
          "internalType": "address",
          "name": "sender",
          "type": "address"
        }
      ],
      "name": "ERC721InvalidSender",
      "type": "error"
    },
    {
      "inputs": [
        {
          "internalType": "uint256",
          "name": "tokenId",
          "type": "uint256"
        }
      ],
      "name": "ERC721NonexistentToken",
      "type": "error"
    },
    {
      "inputs": [
        {
          "internalType": "address",
          "name": "owner",
          "type": "address"
        }
      ],
      "name": "OwnableInvalidOwner",
      "type": "error"
    },
    {
      "inputs": [
        {
          "internalType": "address",
          "name": "account",
          "type": "address"
        }
      ],
      "name": "OwnableUnauthorizedAccount",
      "type": "error"
    },
    {
      "anonymous": false,
      "inputs": [
        {
          "indexed": true,
          "internalType": "address",
          "name": "owner",
          "type": "address"
        },
        {
          "indexed": true,
          "internalType": "address",
          "name": "approved",
          "type": "address"
        },
        {
          "indexed": true,
          "internalType": "uint256",
          "name": "tokenId",
          "type": "uint256"
        }
      ],
      "name": "Approval",
      "type": "event"
    },
    {
      "anonymous": false,
      "inputs": [
        {
          "indexed": true,
          "internalType": "address",
          "name": "owner",
          "type": "address"
        },
        {
          "indexed": true,
          "internalType": "address",
          "name": "operator",
          "type": "address"
        },
        {
          "indexed": false,
          "internalType": "bool",
          "name": "approved",
          "type": "bool"
        }
      ],
      "name": "ApprovalForAll",
      "type": "event"
    },
    {
      "anonymous": false,
      "inputs": [
        {
          "indexed": false,
          "internalType": "uint256",
          "name": "_fromTokenId",
          "type": "uint256"
        },
        {
          "indexed": false,
          "internalType": "uint256",
          "name": "_toTokenId",
          "type": "uint256"
        }
      ],
      "name": "BatchMetadataUpdate",
      "type": "event"
    },
    {
      "anonymous": false,
      "inputs": [
        {
          "indexed": true,
          "internalType": "uint256",
          "name": "tokenId",
          "type": "uint256"
        },
        {
          "indexed": true,
          "internalType": "address",
          "name": "recipient",
          "type": "address"
        },
        {
          "indexed": false,
          "internalType": "string",
          "name": "title",
          "type": "string"
        },
        {
          "indexed": false,
          "internalType": "string",
          "name": "achievementType",
          "type": "string"
        }
      ],
      "name": "CertificateMinted",
      "type": "event"
    },
    {
      "anonymous": false,
      "inputs": [
        {
          "indexed": false,
          "internalType": "uint256",
          "name": "_tokenId",
          "type": "uint256"
        }
      ],
      "name": "MetadataUpdate",
      "type": "event"
    },
    {
      "anonymous": false,
      "inputs": [
        {
          "indexed": true,
          "internalType": "address",
          "name": "previousOwner",
          "type": "address"
        },
        {
          "indexed": true,
          "internalType": "address",
          "name": "newOwner",
          "type": "address"
        }
      ],
      "name": "OwnershipTransferred",
      "type": "event"
    },
    {
      "anonymous": false,
      "inputs": [
        {
          "indexed": true,
          "internalType": "address",
          "name": "from",
          "type": "address"
        },
        {
          "indexed": true,
          "internalType": "address",
          "name": "to",
          "type": "address"
        },
        {
          "indexed": true,
          "internalType": "uint256",
          "name": "tokenId",
          "type": "uint256"
        }
      ],
      "name": "Transfer",
      "type": "event"
    },
    {
      "inputs": [
        {
          "internalType": "address",
          "name": "to",
          "type": "address"
        },
        {
          "internalType": "uint256",
          "name": "tokenId",
          "type": "uint256"
        }
      ],
      "name": "approve",
      "outputs": [],
      "stateMutability": "nonpayable",
      "type": "function"
    },
    {
      "inputs": [
        {
          "internalType": "address",
          "name": "owner",
          "type": "address"
        }
      ],
      "name": "balanceOf",
      "outputs": [
        {
          "internalType": "uint256",
          "name": "",
          "type": "uint256"
        }
      ],
      "stateMutability": "view",
      "type": "function"
    },
    {
      "inputs": [
        {
          "internalType": "uint256",
          "name": "",
          "type": "uint256"
        }
      ],
      "name": "certificateMetadata",
      "outputs": [
        {
          "internalType": "string",
          "name": "title",
          "type": "string"
        },
        {
          "internalType": "string",
          "name": "issueDate",
          "type": "string"
        },
        {
          "internalType": "string",
          "name": "achievementType",
          "type": "string"
        },
        {
          "internalType": "address",
          "name": "recipient",
          "type": "address"
        }
      ],
      "stateMutability": "view",
      "type": "function"
    },
    {
      "inputs": [
        {
          "internalType": "uint256",
          "name": "tokenId",
          "type": "uint256"
        }
      ],
      "name": "getApproved",
      "outputs": [
        {
          "internalType": "address",
          "name": "",
          "type": "address"
        }
      ],
      "stateMutability": "view",
      "type": "function"
    },
    {
      "inputs": [
        {
          "internalType": "uint256",
          "name": "tokenId",
          "type": "uint256"
        }
      ],
      "name": "getCertificateDetails",
      "outputs": [
        {
          "components": [
            {
              "internalType": "string",
              "name": "title",
              "type": "string"
            },
            {
              "internalType": "string",
              "name": "issueDate",
              "type": "string"
            },
            {
              "internalType": "string",
              "name": "achievementType",
              "type": "string"
            },
            {
              "internalType": "address",
              "name": "recipient",
              "type": "address"
            }
          ],
          "internalType": "struct CertificateNFT.CertificateMetadata",
          "name": "",
          "type": "tuple"
        }
      ],
      "stateMutability": "view",
      "type": "function"
    },
    {
      "inputs": [
        {
          "internalType": "address",
          "name": "owner",
          "type": "address"
        }
      ],
      "name": "getCertificatesByOwner",
      "outputs": [
        {
          "internalType": "uint256[]",
          "name": "",
          "type": "uint256[]"
        }
      ],
      "stateMutability": "view",
      "type": "function"
    },
    {
      "inputs": [
        {
          "internalType": "address",
          "name": "owner",
          "type": "address"
        },
        {
          "internalType": "address",
          "name": "operator",
          "type": "address"
        }
      ],
      "name": "isApprovedForAll",
      "outputs": [
        {
          "internalType": "bool",
          "name": "",
          "type": "bool"
        }
      ],
      "stateMutability": "view",
      "type": "function"
    },
    {
      "inputs": [
        {
          "internalType": "address",
          "name": "to",
          "type": "address"
        },
        {
          "internalType": "string",
          "name": "title",
          "type": "string"
        },
        {
          "internalType": "string",
          "name": "achievementType",
          "type": "string"
        },
        {
          "internalType": "string",
          "name": "uri",
          "type": "string"
        }
      ],
      "name": "mintCertificate",
      "outputs": [
        {
          "internalType": "uint256",
          "name": "",
          "type": "uint256"
        }
      ],
      "stateMutability": "nonpayable",
      "type": "function"
    },
    {
      "inputs": [],
      "name": "name",
      "outputs": [
        {
          "internalType": "string",
          "name": "",
          "type": "string"
        }
      ],
      "stateMutability": "view",
      "type": "function"
    },
    {
      "inputs": [],
      "name": "owner",
      "outputs": [
        {
          "internalType": "address",
          "name": "",
          "type": "address"
        }
      ],
      "stateMutability": "view",
      "type": "function"
    },
    {
      "inputs": [
        {
          "internalType": "uint256",
          "name": "tokenId",
          "type": "uint256"
        }
      ],
      "name": "ownerOf",
      "outputs": [
        {
          "internalType": "address",
          "name": "",
          "type": "address"
        }
      ],
      "stateMutability": "view",
      "type": "function"
    },
    {
      "inputs": [],
      "name": "renounceOwnership",
      "outputs": [],
      "stateMutability": "nonpayable",
      "type": "function"
    },
    {
      "inputs": [
        {
          "internalType": "address",
          "name": "from",
          "type": "address"
        },
        {
          "internalType": "address",
          "name": "to",
          "type": "address"
        },
        {
          "internalType": "uint256",
          "name": "tokenId",
          "type": "uint256"
        }
      ],
      "name": "safeTransferFrom",
      "outputs": [],
      "stateMutability": "nonpayable",
      "type": "function"
    },
    {
      "inputs": [
        {
          "internalType": "address",
          "name": "from",
          "type": "address"
        },
        {
          "internalType": "address",
          "name": "to",
          "type": "address"
        },
        {
          "internalType": "uint256",
          "name": "tokenId",
          "type": "uint256"
        },
        {
          "internalType": "bytes",
          "name": "data",
          "type": "bytes"
        }
      ],
      "name": "safeTransferFrom",
      "outputs": [],
      "stateMutability": "nonpayable",
      "type": "function"
    },
    {
      "inputs": [
        {
          "internalType": "address",
          "name": "operator",
          "type": "address"
        },
        {
          "internalType": "bool",
          "name": "approved",
          "type": "bool"
        }
      ],
      "name": "setApprovalForAll",
      "outputs": [],
      "stateMutability": "nonpayable",
      "type": "function"
    },
    {
      "inputs": [
        {
          "internalType": "bytes4",
          "name": "interfaceId",
          "type": "bytes4"
        }
      ],
      "name": "supportsInterface",
      "outputs": [
        {
          "internalType": "bool",
          "name": "",
          "type": "bool"
        }
      ],
      "stateMutability": "view",
      "type": "function"
    },
    {
      "inputs": [],
      "name": "symbol",
      "outputs": [
        {
          "internalType": "string",
          "name": "",
          "type": "string"
        }
      ],
      "stateMutability": "view",
      "type": "function"
    },
    {
      "inputs": [
        {
          "internalType": "uint256",
          "name": "tokenId",
          "type": "uint256"
        }
      ],
      "name": "tokenURI",
      "outputs": [
        {
          "internalType": "string",
          "name": "",
          "type": "string"
        }
      ],
      "stateMutability": "view",
      "type": "function"
    },
    {
      "inputs": [
        {
          "internalType": "address",
          "name": "from",
          "type": "address"
        },
        {
          "internalType": "address",
          "name": "to",
          "type": "address"
        },
        {
          "internalType": "uint256",
          "name": "tokenId",
          "type": "uint256"
        }
      ],
      "name": "transferFrom",
      "outputs": [],
      "stateMutability": "nonpayable",
      "type": "function"
    },
    {
      "inputs": [
        {
          "internalType": "address",
          "name": "newOwner",
          "type": "address"
        }
      ],
      "name": "transferOwnership",
      "outputs": [],
      "stateMutability": "nonpayable",
      "type": "function"
    }
  ],
  "bytecode": "0x60806040523480156200001157600080fd5b50336040518060400160405280601c81526020017f5765623320416368696576656d656e74204365727469666963617465000000008152506040518060400160405280600681526020017f5733434552540000000000000000000000000000000000000000000000000000815250816000908162000090919062000472565b508060019081620000a2919062000472565b505050600073ffffffffffffffffffffffffffffffffffffffff168173ffffffffffffffffffffffffffffffffffffffff16036200011a5760006040517f1e4fbdf70000000000000000000000000000000000000000000000000000000081526004016200011191906200059e565b60405180910390fd5b6200012b816200013260201b60201c565b50620005bb565b6000600760009054906101000a900473ffffffffffffffffffffffffffffffffffffffff16905081600760006101000a81548173ffffffffffffffffffffffffffffffffffffffff021916908373ffffffffffffffffffffffffffffffffffffffff1602179055508173ffffffffffffffffffffffffffffffffffffffff168173ffffffffffffffffffffffffffffffffffffffff167f8be0079c531659141344cd1fd0a4f28419497f9722a3daafe3b4186f6b6457e060405160405180910390a35050565b600081519050919050565b7f4e487b7100000000000000000000000000000000000000000000000000000000600052604160045260246000fd5b7f4e487b7100000000000000000000000000000000000000000000000000000000600052602260045260246000fd5b600060028204905060018216806200027a57607f821691505b60208210810362000290576200028f62000232565b5b50919050565b60008190508160005260206000209050919050565b60006020601f8301049050919050565b600082821b905092915050565b600060088302620002fa7fffffffffffffffffffffffffffffffffffffffffffffffffffffffffffffffff82620002bb565b620003068683620002bb565b95508019841693508086168417925050509392505050565b6000819050919050565b6000819050919050565b6000620003536200034d62000347846200031e565b62000328565b6200031e565b9050919050565b6000819050919050565b6200036f8362000332565b620003876200037e826200035a565b848454620002c8565b825550505050565b600090565b6200039e6200038f565b620003ab81848462000364565b505050565b5b81811015620003d357620003c760008262000394565b600181019050620003b1565b5050565b601f8211156200042257620003ec8162000296565b620003f784620002ab565b8101602085101562000407578190505b6200041f6200041685620002ab565b830182620003b0565b50505b505050565b600082821c905092915050565b6000620004476000198460080262000427565b1980831691505092915050565b600062000462838362000434565b9150826002028217905092915050565b6200047d82620001f8565b67ffffffffffffffff81111562000499576200049862000203565b5b620004a5825462000261565b620004b2828285620003d7565b600060209050601f831160018114620004ea5760008415620004d5578287015190505b620004e1858262000454565b86555062000551565b601f198416620004fa8662000296565b60005b828110156200052457848901518255600182019150602085019450602081019050620004fd565b8683101562000544578489015162000540601f89168262000434565b8355505b6001600288020188555050505b505050505050565b600073ffffffffffffffffffffffffffffffffffffffff82169050919050565b6000620005868262000559565b9050919050565b620005988162000579565b82525050565b6000602082019050620005b560008301846200058d565b92915050565b61320480620005cb6000396000f3fe608060405234801561001057600080fd5b506004361061012c5760003560e01c80638da5cb5b116100ad578063b88d4fde11610071578063b88d4fde14610355578063bc41361714610371578063c87b56dd146103a4578063e985e9c5146103d4578063f2fde38b146104045761012c565b80638da5cb5b1461029d578063929c01fd146102bb57806395d89b41146102eb578063a22cb46514610309578063a901fe5e146103255761012c565b806323b872dd116100f457806323b872dd146101fb57806342842e0e146102175780636352211e1461023357806370a0823114610263578063715018a6146102935761012c565b806301ffc9a71461013157806306fdde0314610161578063081812fc1461017f578063095ea7b3146101af5780631db73840146101cb575b600080fd5b61014b60048036038101906101469190612305565b610420565b604051610158919061234d565b60405180910390f35b610169610432565b60405161017691906123f8565b60405180910390f35b61019960048036038101906101949190612450565b6104c4565b6040516101a691906124be565b60405180910390f35b6101c960048036038101906101c49190612505565b6104e0565b005b6101e560048036038101906101e09190612545565b6104f6565b6040516101f29190612630565b60405180910390f35b61021560048036038101906102109190612652565b61062f565b005b610231600480360381019061022c9190612652565b610731565b005b61024d60048036038101906102489190612450565b610751565b60405161025a91906124be565b60405180910390f35b61027d60048036038101906102789190612545565b610763565b60405161028a91906126b4565b60405180910390f35b61029b61081d565b005b6102a5610831565b6040516102b291906124be565b60405180910390f35b6102d560048036038101906102d09190612804565b61085b565b6040516102e291906126b4565b60405180910390f35b6102f36109cf565b60405161030091906123f8565b60405180910390f35b610323600480360381019061031e91906128eb565b610a61565b005b61033f600480360381019061033a9190612450565b610a77565b60405161034c91906129f5565b60405180910390f35b61036f600480360381019061036a9190612ab8565b610d27565b005b61038b60048036038101906103869190612450565b610d4c565b60405161039b9493929190612b3b565b60405180910390f35b6103be60048036038101906103b99190612450565b610f34565b6040516103cb91906123f8565b60405180910390f35b6103ee60048036038101906103e99190612b95565b610f46565b6040516103fb919061234d565b60405180910390f35b61041e60048036038101906104199190612545565b610fda565b005b600061042b82611060565b9050919050565b60606000805461044190612c04565b80601f016020809104026020016040519081016040528092919081815260200182805461046d90612c04565b80156104ba5780601f1061048f576101008083540402835291602001916104ba565b820191906000526020600020905b81548152906001019060200180831161049d57829003601f168201915b5050505050905090565b60006104cf826110c1565b506104d982611149565b9050919050565b6104f282826104ed611186565b61118e565b5050565b6060600061050383610763565b905060008167ffffffffffffffff811115610521576105206126d9565b5b60405190808252806020026020018201604052801561054f5781602001602082028036833780820191505090505b509050600080600190505b60085481101561062357600073ffffffffffffffffffffffffffffffffffffffff16610585826111a0565b73ffffffffffffffffffffffffffffffffffffffff16141580156105dc57508573ffffffffffffffffffffffffffffffffffffffff166105c4826111a0565b73ffffffffffffffffffffffffffffffffffffffff16145b1561061057808383815181106105f5576105f4612c35565b5b602002602001018181525050818061060c90612c93565b9250505b808061061b90612c93565b91505061055a565b50819350505050919050565b600073ffffffffffffffffffffffffffffffffffffffff168273ffffffffffffffffffffffffffffffffffffffff16036106a15760006040517f64a0ae9200000000000000000000000000000000000000000000000000000000815260040161069891906124be565b60405180910390fd5b60006106b583836106b0611186565b6111dd565b90508373ffffffffffffffffffffffffffffffffffffffff168173ffffffffffffffffffffffffffffffffffffffff161461072b578382826040517f64283d7b00000000000000000000000000000000000000000000000000000000815260040161072293929190612cdb565b60405180910390fd5b50505050565b61074c83838360405180602001604052806000815250610d27565b505050565b600061075c826110c1565b9050919050565b60008073ffffffffffffffffffffffffffffffffffffffff168273ffffffffffffffffffffffffffffffffffffffff16036107d65760006040517f89c62b640000000000000000000000000000000000000000000000000000000081526004016107cd91906124be565b60405180910390fd5b600360008373ffffffffffffffffffffffffffffffffffffffff1673ffffffffffffffffffffffffffffffffffffffff168152602001908152602001600020549050919050565b6108256111f3565b61082f600061127a565b565b6000600760009054906101000a900473ffffffffffffffffffffffffffffffffffffffff16905090565b60006108656111f3565b60006008600081548092919061087a90612c93565b91905055905061088a8682611340565b610894818461135e565b60405180608001604052808681526020016108ae426113ba565b81526020018581526020018773ffffffffffffffffffffffffffffffffffffffff168152506009600083815260200190815260200160002060008201518160000190816108fb9190612ebe565b5060208201518160010190816109119190612ebe565b5060408201518160020190816109279190612ebe565b5060608201518160030160006101000a81548173ffffffffffffffffffffffffffffffffffffffff021916908373ffffffffffffffffffffffffffffffffffffffff1602179055509050508573ffffffffffffffffffffffffffffffffffffffff16817f4f702e06a1f6360f8c5c1f8fdcbc9c3ca58ec1fca317d02ad7ce162c8899510887876040516109bb929190612f90565b60405180910390a380915050949350505050565b6060600180546109de90612c04565b80601f0160208091040260200160405190810160405280929190818152602001828054610a0a90612c04565b8015610a575780601f10610a2c57610100808354040283529160200191610a57565b820191906000526020600020905b815481529060010190602001808311610a3a57829003601f168201915b5050505050905090565b610a73610a6c611186565b8383611488565b5050565b610a7f61225b565b600073ffffffffffffffffffffffffffffffffffffffff16610aa0836111a0565b73ffffffffffffffffffffffffffffffffffffffff1603610af6576040517f08c379a0000000000000000000000000000000000000000000000000000000008152600401610aed90613013565b60405180910390fd5b60096000838152602001908152602001600020604051806080016040529081600082018054610b2490612c04565b80601f0160208091040260200160405190810160405280929190818152602001828054610b5090612c04565b8015610b9d5780601f10610b7257610100808354040283529160200191610b9d565b820191906000526020600020905b815481529060010190602001808311610b8057829003601f168201915b50505050508152602001600182018054610bb690612c04565b80601f0160208091040260200160405190810160405280929190818152602001828054610be290612c04565b8015610c2f5780601f10610c0457610100808354040283529160200191610c2f565b820191906000526020600020905b815481529060010190602001808311610c1257829003601f168201915b50505050508152602001600282018054610c4890612c04565b80601f0160208091040260200160405190810160405280929190818152602001828054610c7490612c04565b8015610cc15780601f10610c9657610100808354040283529160200191610cc1565b820191906000526020600020905b815481529060010190602001808311610ca457829003601f168201915b505050505081526020016003820160009054906101000a900473ffffffffffffffffffffffffffffffffffffffff1673ffffffffffffffffffffffffffffffffffffffff1673ffffffffffffffffffffffffffffffffffffffff16815250509050919050565b610d3284848461062f565b610d46610d3d611186565b858585856115f7565b50505050565b6009602052806000526040600020600091509050806000018054610d6f90612c04565b80601f0160208091040260200160405190810160405280929190818152602001828054610d9b90612c04565b8015610de85780601f10610dbd57610100808354040283529160200191610de8565b820191906000526020600020905b815481529060010190602001808311610dcb57829003601f168201915b505050505090806001018054610dfd90612c04565b80601f0160208091040260200160405190810160405280929190818152602001828054610e2990612c04565b8015610e765780601f10610e4b57610100808354040283529160200191610e76565b820191906000526020600020905b815481529060010190602001808311610e5957829003601f168201915b505050505090806002018054610e8b90612c04565b80601f0160208091040260200160405190810160405280929190818152602001828054610eb790612c04565b8015610f045780601f10610ed957610100808354040283529160200191610f04565b820191906000526020600020905b815481529060010190602001808311610ee757829003601f168201915b5050505050908060030160009054906101000a900473ffffffffffffffffffffffffffffffffffffffff16905084565b6060610f3f826117a8565b9050919050565b6000600560008473ffffffffffffffffffffffffffffffffffffffff1673ffffffffffffffffffffffffffffffffffffffff16815260200190815260200160002060008373ffffffffffffffffffffffffffffffffffffffff1673ffffffffffffffffffffffffffffffffffffffff16815260200190815260200160002060009054906101000a900460ff16905092915050565b610fe26111f3565b600073ffffffffffffffffffffffffffffffffffffffff168173ffffffffffffffffffffffffffffffffffffffff16036110545760006040517f1e4fbdf700000000000000000000000000000000000000000000000000000000815260040161104b91906124be565b60405180910390fd5b61105d8161127a565b50565b6000634906490660e01b7bffffffffffffffffffffffffffffffffffffffffffffffffffffffff1916827bffffffffffffffffffffffffffffffffffffffffffffffffffffffff191614806110ba57506110b9826118bb565b5b9050919050565b6000806110cd836111a0565b9050600073ffffffffffffffffffffffffffffffffffffffff168173ffffffffffffffffffffffffffffffffffffffff160361114057826040517f7e27328900000000000000000000000000000000000000000000000000000000815260040161113791906126b4565b60405180910390fd5b80915050919050565b60006004600083815260200190815260200160002060009054906101000a900473ffffffffffffffffffffffffffffffffffffffff169050919050565b600033905090565b61119b838383600161199d565b505050565b60006002600083815260200190815260200160002060009054906101000a900473ffffffffffffffffffffffffffffffffffffffff169050919050565b60006111ea848484611b62565b90509392505050565b6111fb611186565b73ffffffffffffffffffffffffffffffffffffffff16611219610831565b73ffffffffffffffffffffffffffffffffffffffff16146112785761123c611186565b6040517f118cdaa700000000000000000000000000000000000000000000000000000000815260040161126f91906124be565b60405180910390fd5b565b6000600760009054906101000a900473ffffffffffffffffffffffffffffffffffffffff16905081600760006101000a81548173ffffffffffffffffffffffffffffffffffffffff021916908373ffffffffffffffffffffffffffffffffffffffff1602179055508173ffffffffffffffffffffffffffffffffffffffff168173ffffffffffffffffffffffffffffffffffffffff167f8be0079c531659141344cd1fd0a4f28419497f9722a3daafe3b4186f6b6457e060405160405180910390a35050565b61135a828260405180602001604052806000815250611d7c565b5050565b8060066000848152602001908152602001600020908161137e9190612ebe565b507ff8e1a15aba9398e019f0b49df1a4fde98ee17ae345cb5f6b5e2c27f5033e8ce7826040516113ae91906126b4565b60405180910390a15050565b6060600060016113c984611da0565b01905060008167ffffffffffffffff8111156113e8576113e76126d9565b5b6040519080825280601f01601f19166020018201604052801561141a5781602001600182028036833780820191505090505b509050600082602083010190505b60011561147d578080600190039150507f3031323334353637383961626364656600000000000000000000000000000000600a86061a8153600a858161147157611470613033565b5b04945060008503611428575b819350505050919050565b600073ffffffffffffffffffffffffffffffffffffffff168273ffffffffffffffffffffffffffffffffffffffff16036114f957816040517f5b08ba180000000000000000000000000000000000000000000000000000000081526004016114f091906124be565b60405180910390fd5b80600560008573ffffffffffffffffffffffffffffffffffffffff1673ffffffffffffffffffffffffffffffffffffffff16815260200190815260200160002060008473ffffffffffffffffffffffffffffffffffffffff1673ffffffffffffffffffffffffffffffffffffffff16815260200190815260200160002060006101000a81548160ff0219169083151502179055508173ffffffffffffffffffffffffffffffffffffffff168373ffffffffffffffffffffffffffffffffffffffff167f17307eab39ab6107e8899845ad3d59bd9653f200f220920489ca2b5937696c31836040516115ea919061234d565b60405180910390a3505050565b60008373ffffffffffffffffffffffffffffffffffffffff163b11156117a1578273ffffffffffffffffffffffffffffffffffffffff1663150b7a02868685856040518563ffffffff1660e01b815260040161165694939291906130b7565b6020604051808303816000875af192505050801561169257506040513d601f19601f8201168201806040525081019061168f9190613118565b60015b611716573d80600081146116c2576040519150601f19603f3d011682016040523d82523d6000602084013e6116c7565b606091505b50600081510361170e57836040517f64a0ae9200000000000000000000000000000000000000000000000000000000815260040161170591906124be565b60405180910390fd5b805160208201fd5b63150b7a0260e01b7bffffffffffffffffffffffffffffffffffffffffffffffffffffffff1916817bffffffffffffffffffffffffffffffffffffffffffffffffffffffff19161461179f57836040517f64a0ae9200000000000000000000000000000000000000000000000000000000815260040161179691906124be565b60405180910390fd5b505b5050505050565b60606117b3826110c1565b5060006006600084815260200190815260200160002080546117d490612c04565b80601f016020809104026020016040519081016040528092919081815260200182805461180090612c04565b801561184d5780601f106118225761010080835404028352916020019161184d565b820191906000526020600020905b81548152906001019060200180831161183057829003601f168201915b50505050509050600061185e611ef3565b905060008151036118735781925050506118b6565b6000825111156118a8578082604051602001611890929190613181565b604051602081830303815290604052925050506118b6565b6118b184611f0a565b925050505b919050565b60007f80ac58cd000000000000000000000000000000000000000000000000000000007bffffffffffffffffffffffffffffffffffffffffffffffffffffffff1916827bffffffffffffffffffffffffffffffffffffffffffffffffffffffff1916148061198657507f5b5e139f000000000000000000000000000000000000000000000000000000007bffffffffffffffffffffffffffffffffffffffffffffffffffffffff1916827bffffffffffffffffffffffffffffffffffffffffffffffffffffffff1916145b80611996575061199582611f73565b5b9050919050565b80806119d65750600073ffffffffffffffffffffffffffffffffffffffff168273ffffffffffffffffffffffffffffffffffffffff1614155b15611b0a5760006119e6846110c1565b9050600073ffffffffffffffffffffffffffffffffffffffff168373ffffffffffffffffffffffffffffffffffffffff1614158015611a5157508273ffffffffffffffffffffffffffffffffffffffff168173ffffffffffffffffffffffffffffffffffffffff1614155b8015611a645750611a628184610f46565b155b15611aa657826040517fa9fbf51f000000000000000000000000000000000000000000000000000000008152600401611a9d91906124be565b60405180910390fd5b8115611b0857838573ffffffffffffffffffffffffffffffffffffffff168273ffffffffffffffffffffffffffffffffffffffff167f8c5be1e5ebec7d5bd14f71427d1e84f3dd0314c0f7b2291e5b200ac8c7c3b92560405160405180910390a45b505b836004600085815260200190815260200160002060006101000a81548173ffffffffffffffffffffffffffffffffffffffff021916908373ffffffffffffffffffffffffffffffffffffffff16021790555050505050565b600080611b6e846111a0565b9050600073ffffffffffffffffffffffffffffffffffffffff168373ffffffffffffffffffffffffffffffffffffffff1614611bb057611baf818486611fdd565b5b600073ffffffffffffffffffffffffffffffffffffffff168173ffffffffffffffffffffffffffffffffffffffff1614611c4157611bf260008560008061199d565b6001600360008373ffffffffffffffffffffffffffffffffffffffff1673ffffffffffffffffffffffffffffffffffffffff168152602001908152602001600020600082825403925050819055505b600073ffffffffffffffffffffffffffffffffffffffff168573ffffffffffffffffffffffffffffffffffffffff1614611cc4576001600360008773ffffffffffffffffffffffffffffffffffffffff1673ffffffffffffffffffffffffffffffffffffffff168152602001908152602001600020600082825401925050819055505b846002600086815260200190815260200160002060006101000a81548173ffffffffffffffffffffffffffffffffffffffff021916908373ffffffffffffffffffffffffffffffffffffffff160217905550838573ffffffffffffffffffffffffffffffffffffffff168273ffffffffffffffffffffffffffffffffffffffff167fddf252ad1be2c89b69c2b068fc378daa952ba7f163c4a11628f55a4df523b3ef60405160405180910390a4809150509392505050565b611d8683836120a1565b611d9b611d91611186565b60008585856115f7565b505050565b600080600090507a184f03e93ff9f4daa797ed6e38ed64bf6a1f0100000000000000008310611dfe577a184f03e93ff9f4daa797ed6e38ed64bf6a1f0100000000000000008381611df457611df3613033565b5b0492506040810190505b6d04ee2d6d415b85acef81000000008310611e3b576d04ee2d6d415b85acef81000000008381611e3157611e30613033565b5b0492506020810190505b662386f26fc100008310611e6a57662386f26fc100008381611e6057611e5f613033565b5b0492506010810190505b6305f5e1008310611e93576305f5e1008381611e8957611e88613033565b5b0492506008810190505b6127108310611eb8576127108381611eae57611ead613033565b5b0492506004810190505b60648310611edb5760648381611ed157611ed0613033565b5b0492506002810190505b600a8310611eea576001810190505b80915050919050565b606060405180602001604052806000815250905090565b6060611f15826110c1565b506000611f20611ef3565b90506000815111611f405760405180602001604052806000815250611f6b565b80611f4a846113ba565b604051602001611f5b929190613181565b6040516020818303038152906040525b915050919050565b60007f01ffc9a7000000000000000000000000000000000000000000000000000000007bffffffffffffffffffffffffffffffffffffffffffffffffffffffff1916827bffffffffffffffffffffffffffffffffffffffffffffffffffffffff1916149050919050565b611fe883838361219a565b61209c57600073ffffffffffffffffffffffffffffffffffffffff168373ffffffffffffffffffffffffffffffffffffffff160361205d57806040517f7e27328900000000000000000000000000000000000000000000000000000000815260040161205491906126b4565b60405180910390fd5b81816040517f177e802f0000000000000000000000000000000000000000000000000000000081526004016120939291906131a5565b60405180910390fd5b505050565b600073ffffffffffffffffffffffffffffffffffffffff168273ffffffffffffffffffffffffffffffffffffffff16036121135760006040517f64a0ae9200000000000000000000000000000000000000000000000000000000815260040161210a91906124be565b60405180910390fd5b6000612121838360006111dd565b9050600073ffffffffffffffffffffffffffffffffffffffff168173ffffffffffffffffffffffffffffffffffffffff16146121955760006040517f73c6ac6e00000000000000000000000000000000000000000000000000000000815260040161218c91906124be565b60405180910390fd5b505050565b60008073ffffffffffffffffffffffffffffffffffffffff168373ffffffffffffffffffffffffffffffffffffffff161415801561225257508273ffffffffffffffffffffffffffffffffffffffff168473ffffffffffffffffffffffffffffffffffffffff16148061221357506122128484610f46565b5b8061225157508273ffffffffffffffffffffffffffffffffffffffff1661223983611149565b73ffffffffffffffffffffffffffffffffffffffff16145b5b90509392505050565b6040518060800160405280606081526020016060815260200160608152602001600073ffffffffffffffffffffffffffffffffffffffff1681525090565b6000604051905090565b600080fd5b600080fd5b60007fffffffff0000000000000000000000000000000000000000000000000000000082169050919050565b6122e2816122ad565b81146122ed57600080fd5b50565b6000813590506122ff816122d9565b92915050565b60006020828403121561231b5761231a6122a3565b5b6000612329848285016122f0565b91505092915050565b60008115159050919050565b61234781612332565b82525050565b6000602082019050612362600083018461233e565b92915050565b600081519050919050565b600082825260208201905092915050565b60005b838110156123a2578082015181840152602081019050612387565b60008484015250505050565b6000601f19601f8301169050919050565b60006123ca82612368565b6123d48185612373565b93506123e4818560208601612384565b6123ed816123ae565b840191505092915050565b6000602082019050818103600083015261241281846123bf565b905092915050565b6000819050919050565b61242d8161241a565b811461243857600080fd5b50565b60008135905061244a81612424565b92915050565b600060208284031215612466576124656122a3565b5b60006124748482850161243b565b91505092915050565b600073ffffffffffffffffffffffffffffffffffffffff82169050919050565b60006124a88261247d565b9050919050565b6124b88161249d565b82525050565b60006020820190506124d360008301846124af565b92915050565b6124e28161249d565b81146124ed57600080fd5b50565b6000813590506124ff816124d9565b92915050565b6000806040838503121561251c5761251b6122a3565b5b600061252a858286016124f0565b925050602061253b8582860161243b565b9150509250929050565b60006020828403121561255b5761255a6122a3565b5b6000612569848285016124f0565b91505092915050565b600081519050919050565b600082825260208201905092915050565b6000819050602082019050919050565b6125a78161241a565b82525050565b60006125b9838361259e565b60208301905092915050565b6000602082019050919050565b60006125dd82612572565b6125e7818561257d565b93506125f28361258e565b8060005b8381101561262357815161260a88826125ad565b9750612615836125c5565b9250506001810190506125f6565b5085935050505092915050565b6000602082019050818103600083015261264a81846125d2565b905092915050565b60008060006060848603121561266b5761266a6122a3565b5b6000612679868287016124f0565b935050602061268a868287016124f0565b925050604061269b8682870161243b565b9150509250925092565b6126ae8161241a565b82525050565b60006020820190506126c960008301846126a5565b92915050565b600080fd5b600080fd5b7f4e487b7100000000000000000000000000000000000000000000000000000000600052604160045260246000fd5b612711826123ae565b810181811067ffffffffffffffff821117156127305761272f6126d9565b5b80604052505050565b6000612743612299565b905061274f8282612708565b919050565b600067ffffffffffffffff82111561276f5761276e6126d9565b5b612778826123ae565b9050602081019050919050565b82818337600083830152505050565b60006127a76127a284612754565b612739565b9050828152602081018484840111156127c3576127c26126d4565b5b6127ce848285612785565b509392505050565b600082601f8301126127eb576127ea6126cf565b5b81356127fb848260208601612794565b91505092915050565b6000806000806080858703121561281e5761281d6122a3565b5b600061282c878288016124f0565b945050602085013567ffffffffffffffff81111561284d5761284c6122a8565b5b612859878288016127d6565b935050604085013567ffffffffffffffff81111561287a576128796122a8565b5b612886878288016127d6565b925050606085013567ffffffffffffffff8111156128a7576128a66122a8565b5b6128b3878288016127d6565b91505092959194509250565b6128c881612332565b81146128d357600080fd5b50565b6000813590506128e5816128bf565b92915050565b60008060408385031215612902576129016122a3565b5b6000612910858286016124f0565b9250506020612921858286016128d6565b9150509250929050565b600082825260208201905092915050565b600061294782612368565b612951818561292b565b9350612961818560208601612384565b61296a816123ae565b840191505092915050565b61297e8161249d565b82525050565b600060808301600083015184820360008601526129a1828261293c565b915050602083015184820360208601526129bb828261293c565b915050604083015184820360408601526129d5828261293c565b91505060608301516129ea6060860182612975565b508091505092915050565b60006020820190508181036000830152612a0f8184612984565b905092915050565b600067ffffffffffffffff821115612a3257612a316126d9565b5b612a3b826123ae565b9050602081019050919050565b6000612a5b612a5684612a17565b612739565b905082815260208101848484011115612a7757612a766126d4565b5b612a82848285612785565b509392505050565b600082601f830112612a9f57612a9e6126cf565b5b8135612aaf848260208601612a48565b91505092915050565b60008060008060808587031215612ad257612ad16122a3565b5b6000612ae0878288016124f0565b9450506020612af1878288016124f0565b9350506040612b028782880161243b565b925050606085013567ffffffffffffffff811115612b2357612b226122a8565b5b612b2f87828801612a8a565b91505092959194509250565b60006080820190508181036000830152612b5581876123bf565b90508181036020830152612b6981866123bf565b90508181036040830152612b7d81856123bf565b9050612b8c60608301846124af565b95945050505050565b60008060408385031215612bac57612bab6122a3565b5b6000612bba858286016124f0565b9250506020612bcb858286016124f0565b9150509250929050565b7f4e487b7100000000000000000000000000000000000000000000000000000000600052602260045260246000fd5b60006002820490506001821680612c1c57607f821691505b602082108103612c2f57612c2e612bd5565b5b50919050565b7f4e487b7100000000000000000000000000000000000000000000000000000000600052603260045260246000fd5b7f4e487b7100000000000000000000000000000000000000000000000000000000600052601160045260246000fd5b6000612c9e8261241a565b91507fffffffffffffffffffffffffffffffffffffffffffffffffffffffffffffffff8203612cd057612ccf612c64565b5b600182019050919050565b6000606082019050612cf060008301866124af565b612cfd60208301856126a5565b612d0a60408301846124af565b949350505050565b60008190508160005260206000209050919050565b60006020601f8301049050919050565b600082821b905092915050565b600060088302612d747fffffffffffffffffffffffffffffffffffffffffffffffffffffffffffffffff82612d37565b612d7e8683612d37565b95508019841693508086168417925050509392505050565b6000819050919050565b6000612dbb612db6612db18461241a565b612d96565b61241a565b9050919050565b6000819050919050565b612dd583612da0565b612de9612de182612dc2565b848454612d44565b825550505050565b600090565b612dfe612df1565b612e09818484612dcc565b505050565b5b81811015612e2d57612e22600082612df6565b600181019050612e0f565b5050565b601f821115612e7257612e4381612d12565b612e4c84612d27565b81016020851015612e5b578190505b612e6f612e6785612d27565b830182612e0e565b50505b505050565b600082821c905092915050565b6000612e9560001984600802612e77565b1980831691505092915050565b6000612eae8383612e84565b9150826002028217905092915050565b612ec782612368565b67ffffffffffffffff811115612ee057612edf6126d9565b5b612eea8254612c04565b612ef5828285612e31565b600060209050601f831160018114612f285760008415612f16578287015190505b612f208582612ea2565b865550612f88565b601f198416612f3686612d12565b60005b82811015612f5e57848901518255600182019150602085019450602081019050612f39565b86831015612f7b5784890151612f77601f891682612e84565b8355505b6001600288020188555050505b505050505050565b60006040820190508181036000830152612faa81856123bf565b90508181036020830152612fbe81846123bf565b90509392505050565b7f436572746966696361746520646f6573206e6f74206578697374000000000000600082015250565b6000612ffd601a83612373565b915061300882612fc7565b602082019050919050565b6000602082019050818103600083015261302c81612ff0565b9050919050565b7f4e487b7100000000000000000000000000000000000000000000000000000000600052601260045260246000fd5b600081519050919050565b600082825260208201905092915050565b600061308982613062565b613093818561306d565b93506130a3818560208601612384565b6130ac816123ae565b840191505092915050565b60006080820190506130cc60008301876124af565b6130d960208301866124af565b6130e660408301856126a5565b81810360608301526130f8818461307e565b905095945050505050565b600081519050613112816122d9565b92915050565b60006020828403121561312e5761312d6122a3565b5b600061313c84828501613103565b91505092915050565b600081905092915050565b600061315b82612368565b6131658185613145565b9350613175818560208601612384565b80840191505092915050565b600061318d8285613150565b91506131998284613150565b91508190509392505050565b60006040820190506131ba60008301856124af565b6131c760208301846126a5565b939250505056fea26469706673582212202b521c11f8f20783143e11cfcbe392396c7523d21a9651f432e62f904a62171b64736f6c63430008140033",
  "linkReferences": {},
  "deployedLinkReferences": {}
}