{
  "_format": "hh-sol-artifact-1",
  "contractName": "Counter",
  "sourceName": "contracts/Counter.sol",
  "abi": [
    {
      "anonymous": false,
      "inputs": [
        {
          "indexed": true,
          "internalType": "address",
          "name": "caller",
          "type": "address"
        },
        {
          "indexed": false,
          "internalType": "int256",
          "name": "newValue",
          "type": "int256"
        }
      ],
      "name": "ValueChanged",
      "type": "event"
    },
    {
      "inputs": [],
      "name": "current",
      "outputs": [
        {
          "internalType": "int256",
          "name": "",
          "type": "int256"
        }
      ],
      "stateMutability": "view",
      "type": "function"
    },
    {
      "inputs": [],
      "name": "decrement",
      "outputs": [],
      "stateMutability": "nonpayable",
      "type": "function"
    },
    {
      "inputs": [],
      "name": "increment",
      "outputs": [],
      "stateMutability": "nonpayable",
      "type": "function"
    }
  ],
  "bytecode": "0x608060405234801561001057600080fd5b50610277806100206000396000f3fe608060405234801561001057600080fd5b50600436106100415760003560e01c80632baeceb7146100465780639fa6a6e314610050578063d09de08a1461006e575b600080fd5b61004e610078565b005b6100586100e3565b6040516100659190610170565b60405180910390f35b6100766100ec565b005b600160008082825461008a91906101ba565b925050819055503373ffffffffffffffffffffffffffffffffffffffff167f8e2e45989c4f0cf90f018749f19596903f6faea9516c567ec3721e17a701e3796000546040516100d99190610170565b60405180910390a2565b60008054905090565b60016000808282546100fe91906101fd565b925050819055503373ffffffffffffffffffffffffffffffffffffffff167f8e2e45989c4f0cf90f018749f19596903f6faea9516c567ec3721e17a701e37960005460405161014d9190610170565b60405180910390a2565b6000819050919050565b61016a81610157565b82525050565b60006020820190506101856000830184610161565b92915050565b7f4e487b7100000000000000000000000000000000000000000000000000000000600052601160045260246000fd5b60006101c582610157565b91506101d083610157565b92508282039050818112600084121682821360008512151617156101f7576101f661018b565b5b92915050565b600061020882610157565b915061021383610157565b92508282019050828112156000831216838212600084121516171561023b5761023a61018b565b5b9291505056fea2646970667358221220c58706a9957e518b2e5bc262db4b6ea61469be9d777e1409957b733019e8891864736f6c63430008140033",
  "linkReferences": {},
  "deployedLinkReferences": {}
}